{
    "contractName": "SellerContract",
    "abi": [
        {
            "inputs": [
                {
                    "internalType": "string",
                    "name": "_name",
                    "type": "string"
                },
                {
                    "internalType": "address payable",
                    "name": "_feeReceipient",
                    "type": "address"
                },
                {
                    "internalType": "uint256",
                    "name": "_platformFee",
                    "type": "uint256"
                },
                {
                    "internalType": "string",
                    "name": "_symbol",
                    "type": "string"
                }
            ],
            "stateMutability": "nonpayable",
            "type": "constructor"
        },
        {
            "anonymous": false,
            "inputs": [
                {
                    "indexed": true,
                    "internalType": "address",
                    "name": "_owner",
                    "type": "address"
                },
                {
                    "indexed": true,
                    "internalType": "address",
                    "name": "_operator",
                    "type": "address"
                },
                {
                    "indexed": false,
                    "internalType": "bool",
                    "name": "_approved",
                    "type": "bool"
                }
            ],
            "name": "ApprovalForAll",
            "type": "event"
        },
        {
            "anonymous": false,
            "inputs": [
                {
                    "indexed": true,
                    "internalType": "uint256",
                    "name": "_supply",
                    "type": "uint256"
                },
                {
                    "indexed": true,
                    "internalType": "uint256",
                    "name": "_id",
                    "type": "uint256"
                },
                {
                    "indexed": true,
                    "internalType": "address",
                    "name": "_to",
                    "type": "address"
                }
            ],
            "name": "EntrysSelled",
            "type": "event"
        },
        {
            "anonymous": false,
            "inputs": [
                {
                    "indexed": false,
                    "internalType": "string",
                    "name": "_uri",
                    "type": "string"
                },
                {
                    "indexed": false,
                    "internalType": "uint256",
                    "name": "_supply",
                    "type": "uint256"
                },
                {
                    "indexed": false,
                    "internalType": "string",
                    "name": "_name",
                    "type": "string"
                },
                {
                    "indexed": false,
                    "internalType": "uint256",
                    "name": "_price",
                    "type": "uint256"
                },
                {
                    "indexed": true,
                    "internalType": "uint256",
                    "name": "_identifier",
                    "type": "uint256"
                }
            ],
            "name": "NewTokenCreated",
            "type": "event"
        },
        {
            "anonymous": false,
            "inputs": [
                {
                    "indexed": true,
                    "internalType": "address",
                    "name": "previousOwner",
                    "type": "address"
                },
                {
                    "indexed": true,
                    "internalType": "address",
                    "name": "newOwner",
                    "type": "address"
                }
            ],
            "name": "OwnershipTransferred",
            "type": "event"
        },
        {
            "anonymous": false,
            "inputs": [
                {
                    "indexed": true,
                    "internalType": "address",
                    "name": "_operator",
                    "type": "address"
                },
                {
                    "indexed": true,
                    "internalType": "address",
                    "name": "_from",
                    "type": "address"
                },
                {
                    "indexed": true,
                    "internalType": "address",
                    "name": "_to",
                    "type": "address"
                },
                {
                    "indexed": false,
                    "internalType": "uint256[]",
                    "name": "_ids",
                    "type": "uint256[]"
                },
                {
                    "indexed": false,
                    "internalType": "uint256[]",
                    "name": "_amounts",
                    "type": "uint256[]"
                }
            ],
            "name": "TransferBatch",
            "type": "event"
        },
        {
            "anonymous": false,
            "inputs": [
                {
                    "indexed": true,
                    "internalType": "address",
                    "name": "_operator",
                    "type": "address"
                },
                {
                    "indexed": true,
                    "internalType": "address",
                    "name": "_from",
                    "type": "address"
                },
                {
                    "indexed": true,
                    "internalType": "address",
                    "name": "_to",
                    "type": "address"
                },
                {
                    "indexed": false,
                    "internalType": "uint256",
                    "name": "_id",
                    "type": "uint256"
                },
                {
                    "indexed": false,
                    "internalType": "uint256",
                    "name": "_amount",
                    "type": "uint256"
                }
            ],
            "name": "TransferSingle",
            "type": "event"
        },
        {
            "anonymous": false,
            "inputs": [
                {
                    "indexed": false,
                    "internalType": "string",
                    "name": "_uri",
                    "type": "string"
                },
                {
                    "indexed": true,
                    "internalType": "uint256",
                    "name": "_id",
                    "type": "uint256"
                }
            ],
            "name": "URI",
            "type": "event"
        },
        {
            "inputs": [
                {
                    "internalType": "string",
                    "name": "_name",
                    "type": "string"
                },
                {
                    "internalType": "uint256",
                    "name": "_supply",
                    "type": "uint256"
                },
                {
                    "internalType": "string",
                    "name": "_uri",
                    "type": "string"
                },
                {
                    "internalType": "uint256",
                    "name": "_price",
                    "type": "uint256"
                }
            ],
            "name": "SetNewTokenFeatures",
            "outputs": [],
            "stateMutability": "nonpayable",
            "type": "function"
        },
        {
            "inputs": [],
            "name": "_currentTokenId",
            "outputs": [
                {
                    "internalType": "uint256",
                    "name": "",
                    "type": "uint256"
                }
            ],
            "stateMutability": "view",
            "type": "function"
        },
        {
            "inputs": [
                {
                    "internalType": "uint256",
                    "name": "_id",
                    "type": "uint256"
                }
            ],
            "name": "_exists",
            "outputs": [
                {
                    "internalType": "bool",
                    "name": "",
                    "type": "bool"
                }
            ],
            "stateMutability": "view",
            "type": "function"
        },
        {
            "inputs": [
                {
                    "internalType": "address",
                    "name": "_from",
                    "type": "address"
                },
                {
                    "internalType": "address",
                    "name": "_to",
                    "type": "address"
                },
                {
                    "internalType": "uint256",
                    "name": "_id",
                    "type": "uint256"
                },
                {
                    "internalType": "uint256",
                    "name": "_amount",
                    "type": "uint256"
                }
            ],
            "name": "_safeTransferFrom",
            "outputs": [],
            "stateMutability": "nonpayable",
            "type": "function"
        },
        {
            "inputs": [
                {
                    "internalType": "address",
                    "name": "_owner",
                    "type": "address"
                },
                {
                    "internalType": "uint256",
                    "name": "_id",
                    "type": "uint256"
                }
            ],
            "name": "balanceOf",
            "outputs": [
                {
                    "internalType": "uint256",
                    "name": "",
                    "type": "uint256"
                }
            ],
            "stateMutability": "view",
            "type": "function"
        },
        {
            "inputs": [
                {
                    "internalType": "address[]",
                    "name": "_owners",
                    "type": "address[]"
                },
                {
                    "internalType": "uint256[]",
                    "name": "_ids",
                    "type": "uint256[]"
                }
            ],
            "name": "balanceOfBatch",
            "outputs": [
                {
                    "internalType": "uint256[]",
                    "name": "",
                    "type": "uint256[]"
                }
            ],
            "stateMutability": "view",
            "type": "function"
        },
        {
            "inputs": [
                {
                    "internalType": "uint256",
                    "name": "_id",
                    "type": "uint256"
                },
                {
                    "internalType": "uint256",
                    "name": "_supply",
                    "type": "uint256"
                }
            ],
            "name": "caculatePlatformMintFee",
            "outputs": [
                {
                    "internalType": "uint256",
                    "name": "",
                    "type": "uint256"
                }
            ],
            "stateMutability": "view",
            "type": "function"
        },
        {
            "inputs": [
                {
                    "internalType": "uint256",
                    "name": "",
                    "type": "uint256"
                }
            ],
            "name": "ids",
            "outputs": [
                {
                    "internalType": "bool",
                    "name": "",
                    "type": "bool"
                }
            ],
            "stateMutability": "view",
            "type": "function"
        },
        {
            "inputs": [],
            "name": "init",
            "outputs": [],
            "stateMutability": "nonpayable",
            "type": "function"
        },
        {
            "inputs": [
                {
                    "internalType": "address",
                    "name": "_owner",
                    "type": "address"
                },
                {
                    "internalType": "address",
                    "name": "_operator",
                    "type": "address"
                }
            ],
            "name": "isApprovedForAll",
            "outputs": [
                {
                    "internalType": "bool",
                    "name": "isOperator",
                    "type": "bool"
                }
            ],
            "stateMutability": "view",
            "type": "function"
        },
        {
            "inputs": [
                {
                    "internalType": "address",
                    "name": "_to",
                    "type": "address"
                },
                {
                    "internalType": "uint256",
                    "name": "_id",
                    "type": "uint256"
                },
                {
                    "internalType": "uint256",
                    "name": "_supply",
                    "type": "uint256"
                }
            ],
            "name": "mint",
            "outputs": [],
            "stateMutability": "payable",
            "type": "function"
        },
        {
            "inputs": [],
            "name": "name",
            "outputs": [
                {
                    "internalType": "string",
                    "name": "",
                    "type": "string"
                }
            ],
            "stateMutability": "view",
            "type": "function"
        },
        {
            "inputs": [],
            "name": "owner",
            "outputs": [
                {
                    "internalType": "address",
                    "name": "",
                    "type": "address"
                }
            ],
            "stateMutability": "view",
            "type": "function"
        },
        {
            "inputs": [],
            "name": "platformFee",
            "outputs": [
                {
                    "internalType": "uint256",
                    "name": "",
                    "type": "uint256"
                }
            ],
            "stateMutability": "view",
            "type": "function"
        },
        {
            "inputs": [],
            "name": "renounceOwnership",
            "outputs": [],
            "stateMutability": "nonpayable",
            "type": "function"
        },
        {
            "inputs": [
                {
                    "internalType": "address",
                    "name": "_from",
                    "type": "address"
                },
                {
                    "internalType": "address",
                    "name": "_to",
                    "type": "address"
                },
                {
                    "internalType": "uint256[]",
                    "name": "_ids",
                    "type": "uint256[]"
                },
                {
                    "internalType": "uint256[]",
                    "name": "_amounts",
                    "type": "uint256[]"
                },
                {
                    "internalType": "bytes",
                    "name": "_data",
                    "type": "bytes"
                }
            ],
            "name": "safeBatchTransferFrom",
            "outputs": [],
            "stateMutability": "nonpayable",
            "type": "function"
        },
        {
            "inputs": [
                {
                    "internalType": "address",
                    "name": "_from",
                    "type": "address"
                },
                {
                    "internalType": "address",
                    "name": "_to",
                    "type": "address"
                },
                {
                    "internalType": "uint256",
                    "name": "_id",
                    "type": "uint256"
                },
                {
                    "internalType": "uint256",
                    "name": "_amount",
                    "type": "uint256"
                },
                {
                    "internalType": "bytes",
                    "name": "_data",
                    "type": "bytes"
                }
            ],
            "name": "safeTransferFrom",
            "outputs": [],
            "stateMutability": "nonpayable",
            "type": "function"
        },
        {
            "inputs": [
                {
                    "internalType": "address",
                    "name": "_operator",
                    "type": "address"
                },
                {
                    "internalType": "bool",
                    "name": "_approved",
                    "type": "bool"
                }
            ],
            "name": "setApprovalForAll",
            "outputs": [],
            "stateMutability": "nonpayable",
            "type": "function"
        },
        {
            "inputs": [
                {
                    "internalType": "string[]",
                    "name": "_name",
                    "type": "string[]"
                },
                {
                    "internalType": "uint256[]",
                    "name": "_supply",
                    "type": "uint256[]"
                },
                {
                    "internalType": "string[]",
                    "name": "_uri",
                    "type": "string[]"
                },
                {
                    "internalType": "uint256[]",
                    "name": "_price",
                    "type": "uint256[]"
                }
            ],
            "name": "setBatchTokensFeatures",
            "outputs": [],
            "stateMutability": "nonpayable",
            "type": "function"
        },
        {
            "inputs": [
                {
                    "internalType": "uint256",
                    "name": "_id",
                    "type": "uint256"
                },
                {
                    "internalType": "string",
                    "name": "_name",
                    "type": "string"
                }
            ],
            "name": "setTokenName",
            "outputs": [],
            "stateMutability": "nonpayable",
            "type": "function"
        },
        {
            "inputs": [
                {
                    "internalType": "uint256",
                    "name": "_id",
                    "type": "uint256"
                },
                {
                    "internalType": "uint256",
                    "name": "_supply",
                    "type": "uint256"
                }
            ],
            "name": "setTokenSupply",
            "outputs": [],
            "stateMutability": "nonpayable",
            "type": "function"
        },
        {
            "inputs": [
                {
                    "internalType": "uint256",
                    "name": "_id",
                    "type": "uint256"
                },
                {
                    "internalType": "string",
                    "name": "_uri",
                    "type": "string"
                }
            ],
            "name": "setTokenURI",
            "outputs": [],
            "stateMutability": "nonpayable",
            "type": "function"
        },
        {
            "inputs": [
                {
                    "internalType": "bytes4",
                    "name": "interfaceId",
                    "type": "bytes4"
                }
            ],
            "name": "supportsInterface",
            "outputs": [
                {
                    "internalType": "bool",
                    "name": "",
                    "type": "bool"
                }
            ],
            "stateMutability": "view",
            "type": "function"
        },
        {
            "inputs": [],
            "name": "symbol",
            "outputs": [
                {
                    "internalType": "string",
                    "name": "",
                    "type": "string"
                }
            ],
            "stateMutability": "view",
            "type": "function"
        },
        {
            "inputs": [],
            "name": "tokenIdCounter",
            "outputs": [
                {
                    "internalType": "uint256",
                    "name": "",
                    "type": "uint256"
                }
            ],
            "stateMutability": "view",
            "type": "function"
        },
        {
            "inputs": [
                {
                    "internalType": "uint256",
                    "name": "_id",
                    "type": "uint256"
                }
            ],
            "name": "tokenSupply",
            "outputs": [
                {
                    "internalType": "uint256",
                    "name": "",
                    "type": "uint256"
                }
            ],
            "stateMutability": "view",
            "type": "function"
        },
        {
            "inputs": [
                {
                    "internalType": "address",
                    "name": "newOwner",
                    "type": "address"
                }
            ],
            "name": "transferOwnership",
            "outputs": [],
            "stateMutability": "nonpayable",
            "type": "function"
        },
        {
            "inputs": [],
            "name": "withdraw",
            "outputs": [],
            "stateMutability": "nonpayable",
            "type": "function"
        }
    ],
    "bytecode": "608060405260006005556006805460ff191690553480156200002057600080fd5b5060405162002416380380620024168339810160408190526200004391620001ab565b6200004e3362000096565b60036200005c8582620002cf565b50600280546001600160a01b0319166001600160a01b038516179055600182905560046200008b8282620002cf565b50505050506200039b565b600080546001600160a01b038381166001600160a01b0319831681178455604051919092169283917f8be0079c531659141344cd1fd0a4f28419497f9722a3daafe3b4186f6b6457e09190a35050565b634e487b7160e01b600052604160045260246000fd5b600082601f8301126200010e57600080fd5b81516001600160401b03808211156200012b576200012b620000e6565b604051601f8301601f19908116603f01168101908282118183101715620001565762000156620000e6565b816040528381526020925086838588010111156200017357600080fd5b600091505b8382101562000197578582018301518183018401529082019062000178565b600093810190920192909252949350505050565b60008060008060808587031215620001c257600080fd5b84516001600160401b0380821115620001da57600080fd5b620001e888838901620000fc565b602088015190965091506001600160a01b03821682146200020857600080fd5b604087015160608801519295509350808211156200022557600080fd5b506200023487828801620000fc565b91505092959194509250565b600181811c908216806200025557607f821691505b6020821081036200027657634e487b7160e01b600052602260045260246000fd5b50919050565b601f821115620002ca57600081815260208120601f850160051c81016020861015620002a55750805b601f850160051c820191505b81811015620002c657828155600101620002b1565b5050505b505050565b81516001600160401b03811115620002eb57620002eb620000e6565b6200030381620002fc845462000240565b846200027c565b602080601f8311600181146200033b5760008415620003225750858301515b600019600386901b1c1916600185901b178555620002c6565b600085815260208120601f198616915b828110156200036c578886015182559484019460019091019084016200034b565b50858210156200038b5787850151600019600388901b60f8161c191681555b5050505050600190811b01905550565b61206b80620003ab6000396000f3fe6080604052600436106101b65760003560e01c8063715018a6116100ec578063cdb0e89e1161008a578063f242432a11610064578063f242432a1461049f578063f2fde38b146104bf578063f8e76cc0146104df578063fac333ac146104ff57600080fd5b8063cdb0e89e1461044a578063e1c7392a1461046a578063e985e9c51461047f57600080fd5b806398bdf6f5116100c657806398bdf6f5146103df578063a22cb465146103f5578063b881834114610415578063c963483c1461043557600080fd5b8063715018a61461038d5780638da5cb5b146103a257806395d89b41146103ca57600080fd5b80632693ebf2116101595780633c9bd9c8116101335780633c9bd9c81461030b5780633ccfd60b1461032b5780634e1273f4146103405780635eb9873a1461036d57600080fd5b80632693ebf2146102ab578063278d17ad146102cb5780632eb2c2d6146102eb57600080fd5b80631203a6af116101955780631203a6af14610240578063156e29f614610262578063162094c41461027557806326232a2e1461029557600080fd5b8062fdd58e146101bb57806301ffc9a7146101ee57806306fdde031461021e575b600080fd5b3480156101c757600080fd5b506101db6101d6366004611629565b61052f565b6040519081526020015b60405180910390f35b3480156101fa57600080fd5b5061020e610209366004611653565b61055a565b60405190151581526020016101e5565b34801561022a57600080fd5b5061023361058f565b6040516101e591906116ca565b34801561024c57600080fd5b5061026061025b366004611794565b61061d565b005b610260610270366004611809565b6106f6565b34801561028157600080fd5b5061026061029036600461183c565b610997565b3480156102a157600080fd5b506101db60015481565b3480156102b757600080fd5b506101db6102c6366004611883565b6109e4565b3480156102d757600080fd5b506102606102e636600461189c565b610a21565b3480156102f757600080fd5b5061026061030636600461194d565b610a63565b34801561031757600080fd5b50610260610326366004611a77565b610b65565b34801561033757600080fd5b50610260610dfe565b34801561034c57600080fd5b5061036061035b366004611b24565b610e35565b6040516101e59190611bda565b34801561037957600080fd5b50610260610388366004611c1e565b610f91565b34801561039957600080fd5b506102606110d0565b3480156103ae57600080fd5b506000546040516001600160a01b0390911681526020016101e5565b3480156103d657600080fd5b506102336110e4565b3480156103eb57600080fd5b506101db60055481565b34801561040157600080fd5b50610260610410366004611c60565b6110f1565b34801561042157600080fd5b506101db61043036600461189c565b61115d565b34801561044157600080fd5b506005546101db565b34801561045657600080fd5b5061026061046536600461183c565b6111a1565b34801561047657600080fd5b506102606111e6565b34801561048b57600080fd5b5061020e61049a366004611c9c565b61125c565b3480156104ab57600080fd5b506102606104ba366004611ccf565b61128a565b3480156104cb57600080fd5b506102606104da366004611d34565b6112f4565b3480156104eb57600080fd5b5061020e6104fa366004611883565b611305565b34801561050b57600080fd5b5061020e61051a366004611883565b60086020526000908152604090205460ff1681565b6001600160a01b03821660009081526009602090815260408083208484529091529020545b92915050565b60006001600160e01b03198216632341374160e21b148061055457506301ffc9a760e01b6001600160e01b0319831614610554565b6003805461059c90611d4f565b80601f01602080910402602001604051908101604052809291908181526020018280546105c890611d4f565b80156106155780601f106105ea57610100808354040283529160200191610615565b820191906000526020600020905b8154815290600101906020018083116105f857829003601f168201915b505050505081565b610625611340565b61062d61139a565b836007600061063b60055490565b81526020810191909152604001600020906106569082611dcf565b50600580546000818152600760205260408082206001810193909355600290920186905591548252902060030161068d8382611dcf565b50806007600061069c60055490565b81526020810191909152604001600020600401556005547f99ce69c044eb3ee32489f29086648d5ff7467402cbd140c6e81cbcb1f95babe1838587856040516106e89493929190611e8f565b60405180910390a250505050565b60065460ff1615156001146107525760405162461bcd60e51b815260206004820152601f60248201527f54686520636f6e747261637420696e206e6f7420696e697469616c697a65640060448201526064015b60405180910390fd5b6001600160a01b03831661079b5760405162461bcd60e51b815260206004820152601060248201526f24b73b30b634b21030b2323932b9b99760811b6044820152606401610749565b6000828152600760205260409020600201548111156107f55760405162461bcd60e51b815260206004820152601660248201527520b6361032b73a393cb99030b9329039b2b63632b21760511b6044820152606401610749565b600082815260076020526040812060040154610812908390611ee2565b90506000610820848461115d565b905061082c8183611ef9565b3410156108715760405162461bcd60e51b815260206004820152601360248201527224b739bab334b1b4b2b73a102337bab732399760691b6044820152606401610749565b6002546040516000916001600160a01b03169083908381818185875af1925050503d80600081146108be576040519150601f19603f3d011682016040523d82523d6000602084013e6108c3565b606091505b505090508061091f5760405162461bcd60e51b815260206004820152602260248201527f5472616e73616374696f6e206661696c656420696e206665652063616c6c696e604482015261339760f11b6064820152608401610749565b6001600160a01b038616600090815260096020908152604080832088845290915281208054869290610952908490611ef9565b90915550506040516001600160a01b03871690869086907fdbaaa6d0e3304a34c6a9712555370fee97235e955fb9aad1d0edaec3b377330690600090a4505050505050565b61099f611340565b6109a882611305565b6109c45760405162461bcd60e51b815260040161074990611f0c565b60008281526007602052604090206003016109df8282611dcf565b505050565b60006109ef82611305565b610a0b5760405162461bcd60e51b815260040161074990611f0c565b5060009081526007602052604090206002015490565b610a29611340565b610a3282611305565b610a4e5760405162461bcd60e51b815260040161074990611f0c565b60009182526007602052604090912060020155565b336001600160a01b0386161480610a7f5750610a7f853361125c565b610ae35760405162461bcd60e51b815260206004820152602f60248201527f45524331313535237361666542617463685472616e7366657246726f6d3a204960448201526e272b20a624a22fa7a822a920aa27a960891b6064820152608401610749565b6001600160a01b038416610b525760405162461bcd60e51b815260206004820152603060248201527f45524331313535237361666542617463685472616e7366657246726f6d3a204960448201526f13959053125117d49150d2541251539560821b6064820152608401610749565b610b5e858585856113b4565b5050505050565b610b6d611340565b82518451148015610b7f575081518351145b8015610b8c575080518251145b610be25760405162461bcd60e51b815260206004820152602160248201527f546865206c656e677468206f6620666561747572657320646f6e74206d6174636044820152600d60fb1b6064820152608401610749565b835160005b818111610df657610bf661139a565b600160086000610c0560055490565b815260200190815260200160002060006101000a81548160ff021916908315150217905550858181518110610c3c57610c3c611f3c565b602002602001015160076000610c5160055490565b8152602081019190915260400160002090610c6c9082611dcf565b506005546000818152600760205260409020600101558451859082908110610c9657610c96611f3c565b602002602001015160076000610cab60055490565b815260200190815260200160002060020181905550838181518110610cd257610cd2611f3c565b602002602001015160076000610ce760055490565b81526020019081526020016000206003019081610d049190611dcf565b50828181518110610d1757610d17611f3c565b602002602001015160076000610d2c60055490565b81526020810191909152604001600020600401556005547f99ce69c044eb3ee32489f29086648d5ff7467402cbd140c6e81cbcb1f95babe1858381518110610d7657610d76611f3c565b6020026020010151878481518110610d9057610d90611f3c565b6020026020010151898581518110610daa57610daa611f3c565b6020026020010151878681518110610dc457610dc4611f3c565b6020026020010151604051610ddc9493929190611e8f565b60405180910390a280610dee81611f52565b915050610be7565b505050505050565b610e06611340565b60405133904780156108fc02916000818181858888f19350505050158015610e32573d6000803e3d6000fd5b50565b60608151835114610e9d5760405162461bcd60e51b815260206004820152602c60248201527f455243313135352362616c616e63654f6642617463683a20494e56414c49445f60448201526b082a4a482b2be988a9c8ea8960a31b6064820152608401610749565b6000835167ffffffffffffffff811115610eb957610eb96116dd565b604051908082528060200260200182016040528015610ee2578160200160208202803683370190505b50905060005b8451811015610f895760096000868381518110610f0757610f07611f3c565b60200260200101516001600160a01b03166001600160a01b031681526020019081526020016000206000858381518110610f4357610f43611f3c565b6020026020010151815260200190815260200160002054828281518110610f6c57610f6c611f3c565b602090810291909101015280610f8181611f52565b915050610ee8565b509392505050565b336001600160a01b0385161480610fad5750610fad843361125c565b610fc95760405162461bcd60e51b815260040161074990611f6b565b6001600160a01b038316610fef5760405162461bcd60e51b815260040161074990611fb5565b6001600160a01b038416600090815260096020908152604080832085845290915290205461101e908290612000565b6001600160a01b038086166000908152600960208181526040808420888552825280842095909555928716825282528281208582529091522054611063908290611ef9565b6001600160a01b03848116600081815260096020908152604080832088845282529182902094909455805186815293840185905290929187169133917fc3d58168c5ae7397731d063d5bbf3d657854427343f4c083240f7aacaa2d0f62910160405180910390a450505050565b6110d8611340565b6110e260006115bd565b565b6004805461059c90611d4f565b336000818152600a602090815260408083206001600160a01b03871680855290835292819020805460ff191686151590811790915590519081529192917f17307eab39ab6107e8899845ad3d59bd9653f200f220920489ca2b5937696c31910160405180910390a35050565b600082815260076020526040812060040154600154829061117f606484612013565b6111899190611ee2565b905060006111978583611ee2565b9695505050505050565b6111a9611340565b6111b282611305565b6111ce5760405162461bcd60e51b815260040161074990611f0c565b60008281526007602052604090206109df8282611dcf565b6111ee611340565b60065460ff161561124d5760405162461bcd60e51b815260206004820152602360248201527f54686520636f6e747261637420697320616c7265647920696e697469616c69746044820152621e995960ea1b6064820152608401610749565b6006805460ff19166001179055565b6001600160a01b039182166000908152600a6020908152604080832093909416825291909152205460ff1690565b336001600160a01b03861614806112a657506112a6853361125c565b6112c25760405162461bcd60e51b815260040161074990611f6b565b6001600160a01b0384166112e85760405162461bcd60e51b815260040161074990611fb5565b610b5e85858585610f91565b6112fc611340565b610e32816115bd565b60008181526008602052604081205460ff1615156001146113385760405162461bcd60e51b815260040161074990611f0c565b506001919050565b6000546001600160a01b031633146110e25760405162461bcd60e51b815260206004820181905260248201527f4f776e61626c653a2063616c6c6572206973206e6f7420746865206f776e65726044820152606401610749565b6001600560008282546113ad9190611ef9565b9091555050565b80518251146114235760405162461bcd60e51b815260206004820152603560248201527f45524331313535235f7361666542617463685472616e7366657246726f6d3a206044820152740929cac82989288be82a4a482b2a6be988a9c8ea89605b1b6064820152608401610749565b815160005b81811015610df65782818151811061144257611442611f3c565b602002602001015160096000886001600160a01b03166001600160a01b03168152602001908152602001600020600086848151811061148357611483611f3c565b60200260200101518152602001908152602001600020546114a49190612000565b6001600160a01b038716600090815260096020526040812086519091908790859081106114d3576114d3611f3c565b60200260200101518152602001908152602001600020819055508281815181106114ff576114ff611f3c565b602002602001015160096000876001600160a01b03166001600160a01b03168152602001908152602001600020600086848151811061154057611540611f3c565b60200260200101518152602001908152602001600020546115619190611ef9565b6001600160a01b0386166000908152600960205260408120865190919087908590811061159057611590611f3c565b602002602001015181526020019081526020016000208190555080806115b590611f52565b915050611428565b600080546001600160a01b038381166001600160a01b0319831681178455604051919092169283917f8be0079c531659141344cd1fd0a4f28419497f9722a3daafe3b4186f6b6457e09190a35050565b80356001600160a01b038116811461162457600080fd5b919050565b6000806040838503121561163c57600080fd5b6116458361160d565b946020939093013593505050565b60006020828403121561166557600080fd5b81356001600160e01b03198116811461167d57600080fd5b9392505050565b6000815180845260005b818110156116aa5760208185018101518683018201520161168e565b506000602082860101526020601f19601f83011685010191505092915050565b60208152600061167d6020830184611684565b634e487b7160e01b600052604160045260246000fd5b604051601f8201601f1916810167ffffffffffffffff8111828210171561171c5761171c6116dd565b604052919050565b600082601f83011261173557600080fd5b813567ffffffffffffffff81111561174f5761174f6116dd565b611762601f8201601f19166020016116f3565b81815284602083860101111561177757600080fd5b816020850160208301376000918101602001919091529392505050565b600080600080608085870312156117aa57600080fd5b843567ffffffffffffffff808211156117c257600080fd5b6117ce88838901611724565b95506020870135945060408701359150808211156117eb57600080fd5b506117f887828801611724565b949793965093946060013593505050565b60008060006060848603121561181e57600080fd5b6118278461160d565b95602085013595506040909401359392505050565b6000806040838503121561184f57600080fd5b82359150602083013567ffffffffffffffff81111561186d57600080fd5b61187985828601611724565b9150509250929050565b60006020828403121561189557600080fd5b5035919050565b600080604083850312156118af57600080fd5b50508035926020909101359150565b600067ffffffffffffffff8211156118d8576118d86116dd565b5060051b60200190565b600082601f8301126118f357600080fd5b81356020611908611903836118be565b6116f3565b82815260059290921b8401810191818101908684111561192757600080fd5b8286015b84811015611942578035835291830191830161192b565b509695505050505050565b600080600080600060a0868803121561196557600080fd5b61196e8661160d565b945061197c6020870161160d565b9350604086013567ffffffffffffffff8082111561199957600080fd5b6119a589838a016118e2565b945060608801359150808211156119bb57600080fd5b6119c789838a016118e2565b935060808801359150808211156119dd57600080fd5b506119ea88828901611724565b9150509295509295909350565b600082601f830112611a0857600080fd5b81356020611a18611903836118be565b82815260059290921b84018101918181019086841115611a3757600080fd5b8286015b8481101561194257803567ffffffffffffffff811115611a5b5760008081fd5b611a698986838b0101611724565b845250918301918301611a3b565b60008060008060808587031215611a8d57600080fd5b843567ffffffffffffffff80821115611aa557600080fd5b611ab1888389016119f7565b95506020870135915080821115611ac757600080fd5b611ad3888389016118e2565b94506040870135915080821115611ae957600080fd5b611af5888389016119f7565b93506060870135915080821115611b0b57600080fd5b50611b18878288016118e2565b91505092959194509250565b60008060408385031215611b3757600080fd5b823567ffffffffffffffff80821115611b4f57600080fd5b818501915085601f830112611b6357600080fd5b81356020611b73611903836118be565b82815260059290921b84018101918181019089841115611b9257600080fd5b948201945b83861015611bb757611ba88661160d565b82529482019490820190611b97565b96505086013592505080821115611bcd57600080fd5b50611879858286016118e2565b6020808252825182820181905260009190848201906040850190845b81811015611c1257835183529284019291840191600101611bf6565b50909695505050505050565b60008060008060808587031215611c3457600080fd5b611c3d8561160d565b9350611c4b6020860161160d565b93969395505050506040820135916060013590565b60008060408385031215611c7357600080fd5b611c7c8361160d565b915060208301358015158114611c9157600080fd5b809150509250929050565b60008060408385031215611caf57600080fd5b611cb88361160d565b9150611cc66020840161160d565b90509250929050565b600080600080600060a08688031215611ce757600080fd5b611cf08661160d565b9450611cfe6020870161160d565b93506040860135925060608601359150608086013567ffffffffffffffff811115611d2857600080fd5b6119ea88828901611724565b600060208284031215611d4657600080fd5b61167d8261160d565b600181811c90821680611d6357607f821691505b602082108103611d8357634e487b7160e01b600052602260045260246000fd5b50919050565b601f8211156109df57600081815260208120601f850160051c81016020861015611db05750805b601f850160051c820191505b81811015610df657828155600101611dbc565b815167ffffffffffffffff811115611de957611de96116dd565b611dfd81611df78454611d4f565b84611d89565b602080601f831160018114611e325760008415611e1a5750858301515b600019600386901b1c1916600185901b178555610df6565b600085815260208120601f198616915b82811015611e6157888601518255948401946001909101908401611e42565b5085821015611e7f5787850151600019600388901b60f8161c191681555b5050505050600190811b01905550565b608081526000611ea26080830187611684565b8560208401528281036040840152611eba8186611684565b91505082606083015295945050505050565b634e487b7160e01b600052601160045260246000fd5b808202811582820484141761055457610554611ecc565b8082018082111561055457610554611ecc565b602080825260169082015275151bdad95b881a5908191bd95cdb89dd08195e1a5cdd60521b604082015260600190565b634e487b7160e01b600052603260045260246000fd5b600060018201611f6457611f64611ecc565b5060010190565b6020808252602a908201527f4552433131353523736166655472616e7366657246726f6d3a20494e56414c49604082015269222fa7a822a920aa27a960b11b606082015260800190565b6020808252602b908201527f4552433131353523736166655472616e7366657246726f6d3a20494e56414c4960408201526a1117d49150d2541251539560aa1b606082015260800190565b8181038181111561055457610554611ecc565b60008261203057634e487b7160e01b600052601260045260246000fd5b50049056fea2646970667358221220a838974621d506b11d62927d6482c1300053097ef14926f90d6218a0d573a69464736f6c63430008110033",
    "sourcePath": "c:/Users/unaig/Desktop/8week/SLine-EntryGenerator/contracts/SellerContract.sol",
    "compiler": {
        "name": "solc",
        "version": "0.8.17+commit.8df45f5f"
    },
    "functionHashes": {
        "SetNewTokenFeatures(string,uint256,string,uint256)": "1203a6af",
        "_currentTokenId()": "c963483c",
        "_exists(uint256)": "f8e76cc0",
        "_safeTransferFrom(address,address,uint256,uint256)": "5eb9873a",
        "balanceOf(address,uint256)": "00fdd58e",
        "balanceOfBatch(address[],uint256[])": "4e1273f4",
        "caculatePlatformMintFee(uint256,uint256)": "b8818341",
        "ids(uint256)": "fac333ac",
        "init()": "e1c7392a",
        "isApprovedForAll(address,address)": "e985e9c5",
        "mint(address,uint256,uint256)": "156e29f6",
        "name()": "06fdde03",
        "owner()": "8da5cb5b",
        "platformFee()": "26232a2e",
        "renounceOwnership()": "715018a6",
        "safeBatchTransferFrom(address,address,uint256[],uint256[],bytes)": "2eb2c2d6",
        "safeTransferFrom(address,address,uint256,uint256,bytes)": "f242432a",
        "setApprovalForAll(address,bool)": "a22cb465",
        "setBatchTokensFeatures(string[],uint256[],string[],uint256[])": "3c9bd9c8",
        "setTokenName(uint256,string)": "cdb0e89e",
        "setTokenSupply(uint256,uint256)": "278d17ad",
        "setTokenURI(uint256,string)": "162094c4",
        "supportsInterface(bytes4)": "01ffc9a7",
        "symbol()": "95d89b41",
        "tokenIdCounter()": "98bdf6f5",
        "tokenSupply(uint256)": "2693ebf2",
        "transferOwnership(address)": "f2fde38b",
        "withdraw()": "3ccfd60b"
    },
    "gasEstimates": {
        "creation": {
            "codeDepositCost": "1659800",
            "executionCost": "infinite",
            "totalCost": "infinite"
        },
        "external": {
            "SetNewTokenFeatures(string,uint256,string,uint256)": "infinite",
            "_currentTokenId()": "2392",
            "_exists(uint256)": "2644",
            "_safeTransferFrom(address,address,uint256,uint256)": "infinite",
            "balanceOf(address,uint256)": "2689",
            "balanceOfBatch(address[],uint256[])": "infinite",
            "caculatePlatformMintFee(uint256,uint256)": "infinite",
            "ids(uint256)": "2560",
            "init()": "28725",
            "isApprovedForAll(address,address)": "infinite",
            "mint(address,uint256,uint256)": "infinite",
            "name()": "infinite",
            "owner()": "2369",
            "platformFee()": "2396",
            "renounceOwnership()": "infinite",
            "safeBatchTransferFrom(address,address,uint256[],uint256[],bytes)": "infinite",
            "safeTransferFrom(address,address,uint256,uint256,bytes)": "infinite",
            "setApprovalForAll(address,bool)": "26652",
            "setBatchTokensFeatures(string[],uint256[],string[],uint256[])": "infinite",
            "setTokenName(uint256,string)": "infinite",
            "setTokenSupply(uint256,uint256)": "26909",
            "setTokenURI(uint256,string)": "infinite",
            "supportsInterface(bytes4)": "517",
            "symbol()": "infinite",
            "tokenIdCounter()": "2329",
            "tokenSupply(uint256)": "4751",
            "transferOwnership(address)": "28364",
            "withdraw()": "infinite"
        },
        "internal": {
            "_newTokenId()": "24309",
            "_safeBatchTransferFrom(address,address,uint256[] memory,uint256[] memory)": "infinite"
        }
    }
}